:020000040800F2
:10000000000002201D560108D13F0108D33F01081E
:10001000D53F0108D73F0108D93F01080000000083
:10002000000000000000000000000000714E000809
:10003000DB3F010800000000114F0008754F000869
:100040006D5601086D5601086D5601086D56010880
:100050006D5601086D5601086D5601086D56010870
:100060006D5601086D5601086D5601086D56010860
:100070006D5601086D5601086D5601086D56010850
:100080006D5601086D5601086D5601086D56010840
:100090006D5601086D5601086D5601086D56010830
:1000A0006D560108DD3F01086D5601086D560108C7
:1000B0006D560108ED3F01086D5601086D560108A7
:1000C0006D5601086D5601086D5601086D56010800
:1000D0006D5601086D5601086D5601086D560108F0
:1000E0006D5601086D5601086D5601086D560108E0
:1000F0006D5601086D5601086D5601086D560108D0
:100100006D5601086D5601086D5601086D560108BF
:100110006D5601086D5601086D5601086D560108AF
:100120006D5601086D5601086D5601086D5601089F
:100130006D560108FD3F01086D5601086D56010816
:100140006D5601086D5601086D5601086D5601087F
:100150006D5601086D5601086D5601086D5601086F
:100160006D5601086D5601086D5601086D5601085F
:100170006D5601086D5601086D560108000000001B
:080180006D5601086D560108DF
:1001900010B5054C237833B9044B13B10448AFF3C1
:1001A00000800123237010BDA80200200000000081
:1001B000706F010808B5034B1BB103490348AFF347
:1001C000008008BD00000000AC020020706F010834
:1001D00081F0004102E000BF83F0004330B54FEAF8
:1001E00041044FEA430594EA050F08BF90EA020F65
:1001F0001FBF54EA000C55EA020C7FEA645C7FEAF8
:10020000655C00F0E2804FEA5454D4EB5555B8BF1A
:100210006D420CDD2C4480EA020281EA030382EA8B
:10022000000083EA010180EA020281EA0303362D1D
:1002300088BF30BD11F0004F4FEA01314FF4801CF0
:100240004CEA113102D0404261EB410113F0004F02
:100250004FEA03334CEA133302D0524263EB4303B9
:1002600094EA050F00F0A780A4F10104D5F1200E57
:100270000DDB02FA0EFC22FA05F2801841F10001B2
:1002800003FA0EF2801843FA05F359410EE0A5F186
:1002900020050EF1200E012A03FA0EFC28BF4CF0B7
:1002A000020C43FA05F3C01851EBE37101F000456D
:1002B00007D54FF0000EDCF1000C7EEB00006EEB7A
:1002C0000101B1F5801F1BD3B1F5001F0CD3490804
:1002D0005FEA30004FEA3C0C04F101044FEA44525B
:1002E00012F5800F80F09A80BCF1004F08BF5FEAE2
:1002F000500C50F1000041EB045141EA050130BDC2
:100300005FEA4C0C404141EB010111F4801FA4F164
:100310000104E9D191F0000F04BF01460020B1FAB9
:1003200081F308BF2033A3F10B03B3F120020CDAF1
:100330000C3208DD02F1140CC2F10C0201FA0CF0CF
:1003400021FA02F10CE002F11402D8BFC2F1200C34
:1003500001FA02F120FA0CFCDCBF41EA0C019040EA
:10036000E41AA2BF01EB0451294330BD6FEA040433
:100370001F3C1CDA0C340EDC04F11404C4F120021E
:1003800020FA04F001FA02F340EA030021FA04F330
:1003900045EA030130BDC4F10C04C4F1200220FA87
:1003A00002F001FA04F340EA0300294630BD21FAC5
:1003B00004F0294630BD94F0000F83F4801306BF8B
:1003C00081F480110134013D4EE77FEA645C18BF7F
:1003D0007FEA655C29D094EA050F08BF90EA020F16
:1003E00005D054EA000C04BF1946104630BD91EA0E
:1003F000030F1EBF0021002030BD5FEA545C05D111
:100400004000494128BF41F0004130BD14F580044F
:100410003CBF01F5801130BD01F0004545F0FE41C3
:1004200041F470014FF0000030BD7FEA645C1ABFF8
:10043000194610467FEA655C1CBF0B46024650EA2F
:10044000013406BF52EA033591EA030F41F400215B
:1004500030BD00BF90F0000F04BF0021704730B5E1
:100460004FF4806404F132044FF000054FF00001B6
:1004700050E700BF90F0000F04BF0021704730B577
:100480004FF4806404F1320410F0004548BF40424C
:100490004FF000013EE700BF42004FEAE2014FEAA1
:1004A00031014FEA02701FBF12F07F4393F07F4F7C
:1004B00081F06051704732F07F4208BF704793F07F
:1004C0007F4F04BF41F40021704730B54FF4607492
:1004D00001F0004521F000411CE700BF50EA010295
:1004E00008BF704730B54FF000050AE050EA01023E
:1004F00008BF704730B511F0004502D5404261EBAE
:1005000041014FF4806404F132045FEA915C3FF4EE
:10051000D8AE4FF003025FEADC0C18BF03325FEA8B
:10052000DC0C18BF033202EBDC02C2F1200300FA3C
:1005300003FC20FA02F001FA03FE40EA0E0021FA61
:1005400002F11444BDE600BF70B54FF0FF0C4CF44F
:10055000E06C1CEA11541DBF1CEA135594EA0C0F01
:1005600095EA0C0F00F0DEF82C4481EA030621EA3C
:100570004C5123EA4C5350EA013518BF52EA033577
:1005800041F4801143F4801338D0A0FB02CE4FF029
:100590000005E1FB02E506F00042E0FB03E54FF059
:1005A0000006E1FB03569CF0000F18BF4EF0010E51
:1005B000A4F1FF04B6F5007F64F5407404D25FEA4D
:1005C0004E0E6D4146EB060642EAC62141EA555100
:1005D0004FEAC52040EA5E504FEACE2EB4F1FD0C42
:1005E00088BFBCF5E06F1ED8BEF1004F08BF5FEAC0
:1005F000500E50F1000041EB045170BD06F0004672
:1006000046EA010140EA020081EA0301B4EB5C041E
:10061000C2BFD4EB0C0541EA045170BD41F4801116
:100620004FF0000E013C00F3AB8014F1360FDEBF3B
:10063000002001F0004170BDC4F10004203C35DA17
:100640000C341BDC04F11404C4F1200500FA05F39A
:1006500020FA04F001FA05F240EA020001F000423B
:1006600021F0004110EBD37021FA04F642EB0601B1
:100670005EEA430E08BF20EAD37070BDC4F10C04DB
:10068000C4F1200500FA04F320FA05F001FA04F29F
:1006900040EA020001F0004110EBD37041F100018B
:1006A0005EEA430E08BF20EAD37070BDC4F1200596
:1006B00000FA05F24EEA020E20FA04F301FA05F2FE
:1006C00043EA020321FA04F001F0004121FA04F2A6
:1006D00020EA020000EBD3705EEA430E08BF20EA76
:1006E000D37070BD94F0000F0FD101F000464000B0
:1006F00041EB010111F4801F08BF013CF7D041EA32
:10070000060195F0000F18BF704703F00046520035
:1007100043EB030313F4801F08BF013DF7D043EA06
:100720000603704794EA0C0F0CEA135518BF95EABC
:100730000C0F0CD050EA410618BF52EA4306D1D143
:1007400081EA030101F000414FF0000070BD50EA62
:10075000410606BF1046194652EA430619D094EAEC
:100760000C0F02D150EA013613D195EA0C0F05D1D6
:1007700052EA03361CBF104619460AD181EA03012A
:1007800001F0004141F0FE4141F470014FF00000E2
:1007900070BD41F0FE4141F4780170BD70B54FF07D
:1007A000FF0C4CF4E06C1CEA11541DBF1CEA1355FD
:1007B00094EA0C0F95EA0C0F00F0A7F8A4EB0504DF
:1007C00081EA030E52EA03354FEA013100F08880D6
:1007D0004FEA03334FF0805545EA131343EA12639F
:1007E0004FEA022245EA111545EA10654FEA002654
:1007F0000EF000419D4208BF964244F1FD0404F50D
:10080000407402D25B084FEA3202B61A65EB030568
:100810005B084FEA32024FF480104FF4002CB6EB25
:10082000020E75EB030E22BFB61A754640EA0C00A5
:100830005B084FEA3202B6EB020E75EB030E22BFE5
:10084000B61A754640EA5C005B084FEA3202B6EB26
:10085000020E75EB030E22BFB61A754640EA9C00E5
:100860005B084FEA3202B6EB020E75EB030E22BFB5
:10087000B61A754640EADC0055EA060E18D04FEA73
:10088000051545EA16754FEA06164FEAC30343EA13
:1008900052734FEAC2025FEA1C1CC0D111F4801FE0
:1008A0000BD141EA00014FF000004FF0004CB6E7D9
:1008B00011F4801F04BF01430020B4F1FD0C88BF78
:1008C000BCF5E06F3FF6AFAEB5EB030C04BFB6EB83
:1008D000020C5FEA500C50F1000041EB045170BD76
:1008E0000EF0004E4EEA113114EB5C04C2BFD4EBA3
:1008F0000C0541EA045170BD41F480114FF0000E27
:10090000013C90E645EA060E8DE60CEA135594EAA2
:100910000C0F08BF95EA0C0F3FF43BAF94EA0C0FA5
:100920000AD150EA01347FF434AF95EA0C0F7FF41A
:1009300025AF104619462CE795EA0C0F06D152EA6E
:1009400003353FF4FDAE1046194622E750EA410652
:1009500018BF52EA43067FF4C5AE50EA41047FF463
:100960000DAF52EA43057FF4EBAE12E74FF0FF3CC8
:1009700006E000BF4FF0010C02E000BF4FF0010C99
:100980004DF804CD4FEA410C7FEA6C5C4FEA430C12
:1009900018BF7FEA6C5C1BD001B050EA410C0CBF61
:1009A00052EA430C91EA030F02BF90EA020F0020C3
:1009B000704710F1000F91EA030F58BF994208BF2A
:1009C00090422CBFD8176FEAE37040F001007047E7
:1009D0004FEA410C7FEA6C5C02D150EA013C07D13E
:1009E0004FEA430C7FEA6C5CD6D152EA033CD3D089
:1009F0005DF8040B704700BF8446104662468C4683
:100A00001946634600E000BF01B5FFF7B7FF0028B5
:100A100048BF10F1000F01BD4DF808EDFFF7F4FFDE
:100A20000CBF012000205DF808FB00BF4DF808ED69
:100A3000FFF7EAFF34BF012000205DF808FB00BF8C
:100A40004DF808EDFFF7E0FF94BF012000205DF8AE
:100A500008FB00BF4DF808EDFFF7CEFF94BF012063
:100A600000205DF808FB00BF4DF808EDFFF7C4FF5C
:100A700034BF012000205DF808FB00BF4FEA410CA5
:100A80007FEA6C5C02D150EA013C0AD14FEA430C88
:100A90007FEA6C5C02D152EA033C02D14FF00000C5
:100AA00070474FF0010070474FEA410212F5001203
:100AB00015D211D56FF47873B3EB625212D94FEAA5
:100AC000C12343F0004343EA505311F0004F23FA8F
:100AD00002F018BF404270474FF00000704750EAE4
:100AE000013005D111F0004008BF6FF000407047A1
:100AF0004FF00000704700BF4FEA4102B2F1E043FF
:100B000024BFB3F5001CDCF1FE5C0DD901F0004CF4
:100B10004FEAC0024CEA5070B2F1004F40EB830044
:100B200008BF20F00100704711F0804F21D113F170
:100B30003872BCBF01F00040704741F480114FEAA9
:100B40005252C2F11802C2F1200C10FA0CF320FA32
:100B500002F018BF40F001004FEAC1234FEAD3234F
:100B600003FA0CFC40EA0C0023FA02F34FEA4303B9
:100B7000CCE77FEA625307D150EA01331EBF4FF042
:100B8000FE4040F44000704701F0004040F0FE405D
:100B900040F40000704700BF53B94AB9002908BFAC
:100BA00000281CBF4FF0FF314FF0FF3000F072B94A
:100BB000ADF1080C6DE904CE00F006F8DDF804E0B4
:100BC000DDE9022304B070472DE9F047089E044692
:100BD0008846002B4BD18A42154667D9B2FA82F279
:100BE0004AB1C2F1200701FA02F320FA07F7954053
:100BF00047EA030894404FEA154E230CB8FBFEF772
:100C00001FFA85FC0EFB178843EA084307FB0CF12B
:100C1000994209D9EB1807F1FF3080F01B81994206
:100C200040F21881023F2B445B1AA4B2B3FBFEF0E2
:100C30000EFB103344EA034400FB0CFCA44509D925
:100C40002C1900F1FF3380F00781A44540F20481A4
:100C500002382C4440EA0740A4EB0C0400271EB1E4
:100C6000D4400023C6E900433946BDE8F0878B42F3
:100C700009D9002E00F0EB800027C6E900013846B4
:100C80003946BDE8F087B3FA83F7002F47D18B428E
:100C900002D3824200F2FA80841A61EB030301203E
:100CA0009846002EE0D0C6E90048DDE702B9FFDE35
:100CB000B2FA82F2002A40F08F80491B4FEA154EAB
:100CC0001FFA85F80127B1FBFEFC230C0EFB1C115B
:100CD00043EA014308FB0CF1994207D9EB180CF1E8
:100CE000FF3002D2994200F2CD808446591AA3B255
:100CF000B1FBFEF00EFB101443EA044408FB00F8BD
:100D0000A04507D92C1900F1FF3302D2A04500F20B
:100D1000B6801846A4EB080440EA0C409FE7C7F1F0
:100D2000200CBB4022FA0CFE4EEA030E01FA07F437
:100D300020FA0CF521FA0CF34FEA1E482543B3FBC9
:100D4000F8F92C0C08FB19331FFA8EFA44EA034316
:100D500009FB0AF49C4202FA07F200FA07F10BD9E8
:100D60001EEB030309F1FF3080F087809C4240F2C4
:100D70008480A9F1020973441B1BADB2B3FBF8F0E8
:100D800008FB103345EA034400FB0AFAA24508D9E0
:100D90001EEB040400F1FF336BD2A24569D902387F
:100DA000744440EA0940A0FB0289A4EB0A044C45C4
:100DB000C2464B4654D351D0002E69D0B1EB0A0540
:100DC00064EB030404FA0CFCFD40FC404CEA05050E
:100DD000C6E90054002747E7C2F1200320FA03F7D1
:100DE000954001FA02F021FA03F34FEA154E384319
:100DF000010CB3FBFEF71FFA85F80EFB173341EA2F
:100E0000034107FB08F38B4204FA02F407D969187F
:100E100007F1FF3C2FD28B422DD9023F2944CB1A38
:100E200081B2B3FBFEF00EFB103341EA034100FB3D
:100E300008F38B4207D9691800F1FF3C17D28B42A7
:100E400015D902382944C91A40EA07473BE7374613
:100E5000304609E70746E7E61846FBE64145ABD2D0
:100E6000B8EB020A69EB0E0201381346A4E76046AC
:100E7000E9E7184695E76746D1E781467CE70238FF
:100E80002C4447E7ACF1020C2B442FE7384608E727
:100E90003746E9E6704700BF034613F8012B002AE6
:100EA000FBD1181A01387047000000000000000054
:100EB00001F0FF01102A2BDB10F0070F08D010F80B
:100EC000013B013A8B422DD010F0070F42B3F6D10F
:100ED000F0B441EA012141EA014122F007047FF028
:100EE00000070023F0E80256083C85EA010586EA7F
:100EF000010685FA47F5A3FA87F586FA47F6A5FABB
:100F000087F68EB9EED1F0BC01F0FF0102F00702C6
:100F100032B110F8013B013A83EA010313B1F8D171
:100F20000020704701387047002D06BF3546033852
:100F3000073815F0010F07D1013015F4807F02BF8B
:100F4000013015F4C03F0130F0BC0138704700BFDC
:100F500008B50B4B1A6842F400721A601A6842F422
:100F600080621A601A6842F480721A60032000F0EE
:100F7000D5FA002012F0EEFF12F04AFF002008BD63
:100F8000003C0240034A1168034B1B780B4413607A
:100F9000704700BFE0D6002000000020014B186819
:100FA000704700BFE0D6002038B50446FFF7F6FFD3
:100FB0000546B4F1FF3F02D0044B1B781C44FFF7F9
:100FC000EDFF401BA042FAD338BD00BF0000002057
:100FD0004A4B5A6822F440325A605A6841680A43C0
:100FE0005A600268536823F4807353600268536840
:100FF000016943EA012353600268536823F0407398
:1010000053600268536881680B43536002689368B9
:1010100023F40063936002689368C1680B43936094
:10102000826A374B9A424BD00268936823F0706310
:10103000936002689368816A0B43936002689368C7
:1010400023F04053936002689368C16A0B43936036
:101050000268936823F00203936002689368017E3C
:1010600043EA4103936090F82030002B33D10268AB
:10107000536823F4006353600268D36A23F4700357
:10108000D3620168CB6AC269013A43EA0253CB6278
:101090000268936823F4007393600268936890F881
:1010A000301043EA412393600268936823F480631D
:1010B000936002689368416943EA812393607047B3
:1010C0000268936823F0706393600268936823F06A
:1010D00040539360BCE70268536843F40063536075
:1010E0000268536823F46043536001684B68426AA6
:1010F000013A43EA42334B60BEE700BF00230140A0
:101100000100000F38B310B50446036C43B1236CE3
:1011100013F0100F0BD00120002384F83C3010BDD9
:1011200012F098FE0023636484F83C30EFE7236CF0
:1011300023F4885323F0020343F002032364204680
:10114000FFF746FF00206064236C23F0030343F0A5
:1011500001032364E0E701207047000082B0002310
:10116000019390F83C30012B7DD0012380F83C3076
:1011700003689A6812F0010F13D19A6842F00102D5
:101180009A603E4B1B683E4AA2FB03239B0C03EB79
:101190004303019302E0019B013B0193019B002B60
:1011A000F9D10268936813F0010F5ED0036C23F449
:1011B000E06323F0010343F480730364536813F482
:1011C000806F05D0036C23F4405343F480530364D1
:1011D000036C13F4805F1BD0436C23F0060343645D
:1011E000002380F83C306FF022031360254B5B68CE
:1011F00013F01F0F27D10368234A934219D002F539
:101200008072934207D0214A93420BD000202DE0F8
:1012100000234364E4E702F50072526812F01F0FE6
:1012200007D0F0E702F58072526802F01F020F2A21
:101230001ED89A6812F0405F1CD19A6842F0804232
:101240009A60002012E003680F4A934201D0002008
:101250000CE09A6812F0405F0ED19A6842F080422A
:101260009A60002002E0022000E0002002B07047F7
:101270000020FBE70020F9E70020F7E7D00000207E
:1012800083DE1B4300230140002001400022014077
:1012900090F83C30012B19D0012380F83C300268D3
:1012A000936823F00103936003689B6813F0010FB8
:1012B00007D1036C23F4885323F0010343F00103A7
:1012C0000364002380F83C301846704702207047C2
:1012D00003689A6812F4806F03D09B6813F4807FD0
:1012E0001CD170B50D460446FFF758FE064623682C
:1012F0001A6812F0020F1AD1B5F1FF3FF7D025B1ED
:10130000FFF74CFE801BA842F1D9236C43F0040385
:101310002364002384F83C3003202DE0036C43F069
:1013200020030364002380F83C30012070476FF0F5
:1013300012021A60236C43F40073236423689A68D2
:1013400012F0405F17D1227EBAB9DA6A12F4700F38
:1013500003D09B6813F4806F11D1236C23F4807346
:101360002364236C13F4805F0BD1236C43F00103DF
:101370002364002000E0002070BD0020FCE7002076
:10138000FAE70020F8E70368D86C704730B482B001
:101390000023019390F83C30012B00F0B78001232B
:1013A00080F83C300B68092B3ED90568EA689BB28F
:1013B00003EB43031E3B072404FA03F322EA03036F
:1013C000EB600568EA688C680B8803EB43031E3BFF
:1013D00004FA03F31343EB604B68062B3AD8056815
:1013E0006A6B03EB8303053B1F2404FA03F322EA31
:1013F00003036B6305686A6B4B6803EB8303053B70
:101400000C8804FA03F313436B630268404B9A425F
:1014100050D002683E4B9A4255D0002380F83C30B1
:10142000184602B030BC704705682A699BB203EBCE
:101430004303072404FA03F322EA03032B6105683C
:101440002A698C680B8803EB430304FA03F3134304
:101450002B61C1E70C2B16D805682A6B03EB8303BD
:10146000233B1F2404FA03F322EA03032B630568DA
:101470002A6B4B6803EB8303233B0C8804FA03F3CA
:1014800013432B63C1E70568EA6A03EB8303413B1F
:101490001F2404FA03F322EA0303EB620568EA6AF5
:1014A0004B6803EB8303413B0C8804FA03F31343BB
:1014B000EB62AAE70B68122BABD1164A536843F4D0
:1014C00080035360A5E70B68103B012BA5D8114A98
:1014D000536843F4000353600B68102B9DD10E4BEF
:1014E0001B6802F1467202F52E3202F28332A2FB31
:1014F00003239B0C03EB83035A00019202E0019B40
:10150000013B0193019B002BF9D186E7022088E77C
:101510000020014000230140D0000020074AD3688A
:1015200023F4E0631B041B0C000200F4E06018438A
:1015300040F0BF6040F40030D060704700ED00E044
:1015400030B4174BDB68C3F30223C3F10704042C48
:1015500028BF04241D1D062D18D9033B4FF0FF356D
:1015600005FA04F421EA0401994005FA03F322EA9A
:101570000303194300280BDB0901C9B200F16040E5
:1015800000F5614080F8001330BC70470023E5E7A8
:1015900000F00F000901C9B2024B1954F4E700BF73
:1015A00000ED00E014ED00E0002807DB00F01F0272
:1015B000400901239340024A42F82030704700BF9F
:1015C00000E100E05079137943EA002307480B500B
:1015D000D07893781B0443EA0063507843EA0023F1
:1015E00012781343024A8B50704700BF408002407C
:1015F00044800240016841F218028B5843F40053C2
:101600008B507047016841F218028B5843F0020377
:101610008B50704782B0084B1B68084AA2FB03231B
:101620005B0A00FB03F0019000BF019B5A1E019270
:10163000002BF9D102B07047D0000020D34D6210CA
:1016400010B582B00446002301930268136843F08A
:101650000803136003681B6801930120FFF7DAFF9A
:101660002368019A1A6002B010BD10B582B004461A
:10167000002301930268136843F0040313600368B6
:101680001B6801930120FFF7C5FF2368019A1A60C8
:1016900002B010BD30B583B0054600230193026847
:1016A00041F21804135943F48013135103681B5972
:1016B00001930120FFF7AEFF2B68019A1A5103B086
:1016C00030BD000070B59EB0044629B14FF40063F0
:1016D000C3604FF480438360E369002B6AD14FF409
:1016E0008063079321680B68394A1A40A368E06851
:1016F00003430798034343F4007313430B602368C9
:101700001D680120FFF750FC23681D6023684022FC
:101710005A6023685D680120FFF746FC23685D601E
:10172000236800259D602368DD602268936923F0AB
:10173000BE031B041B0C43F08003936123689E6966
:101740000120FFF731FC23689E612368DD61236877
:10175000DD690120FFF728FC2368DD61226841F282
:10176000180551591B4B0B4043F0087343F0040319
:10177000535123685E590120FFF716FC23685E5120
:10178000236803F58053144A1A60236803F58053D5
:101790001D680120FFF708FC236803F580531D60D6
:1017A000A369012B09D0626900212046FFF70AFFD7
:1017B0001EB070BD0023079394E7216841F21C021C
:1017C0008B5843F4803343F040038B50EBE700BF6A
:1017D0000F8120FF233FDEF88020C102F0B490F893
:1017E0004540012C31D0012480F84540022480F886
:1017F0004440C162002401E0F96001349C4217D2E8
:1018000065014F194FF480164E5140F2F45606FB15
:101810000426BE60C6691EB94E5946F440064E51B4
:101820005D1EA542E8D9651C01EB4515FD60E4E7A6
:10183000026841F21003D150012380F844300023A4
:1018400080F845301846F0BC70470220FBE7F0B442
:1018500090F84540012C2ED0012480F84540022408
:1018600080F844408162002401E0E96001349C4238
:1018700014D266018D194FF000478F5144F2F4568F
:101880006E6040F2F45606FB0426AE605E1EA64271
:10189000EBD9661C01EB4616EE60E7E7026841F201
:1018A0000C03D150012380F84430002380F84530E8
:1018B0001846F0BC70470220FBE7000090F8453066
:1018C000012B00F08580012380F84530022380F849
:1018D0004430B1B1C36A1A68002A1ADB30B440F24E
:1018E000F45291421DD93B4AA2FB0142920A40F2B6
:1018F000F45404FB121404B10132012A11D0002364
:1019000047E0012380F84430002280F84520184643
:101910007047122380F84430002380F845300120BE
:1019200070471A6842F040521A60C36AC1F30C0152
:101930005960C26A136843F000431360C36ADB68EE
:10194000C362036841F214029A5812F0040F08D0DF
:1019500041F2140204219950026841F2040300216B
:10196000D150012380F84430002380F845301846D8
:1019700030BC7047C56A2C6844F080542C6011E07C
:10198000C56A2C6844F000442C60C46AE468C462F0
:1019900001339A42D5D9C56A2C6824F040542C6092
:1019A000002BE7D0C46A40F2F4556560541E9C4297
:1019B000E6D1C56A2C6844F000542C60064C04FB48
:1019C000021404F2F454C56AC4F30C046C60D7E743
:1019D000022070470BB002AC0CFAFFFF90F84530C4
:1019E000012B45D0012380F84530022380F8443094
:1019F0000021836A1A68002A32DB032930D80131BA
:101A00001A6802F44072B2F5007F09D01A6812F425
:101A1000407F0BD1826B01328263DB688362E8E72F
:101A2000036301228263DB688362E2E74363826BC4
:101A300001328263012A11D01A68C2F30D42043ABE
:101A4000C263026B92680264DB688362012380F8E0
:101A50004430002380F84530184670470363EBE7B5
:101A6000012380F84430002280F845201846704752
:101A7000022070477047704710B50446036841F272
:101A800014029A5812F0400F11D141F214029B58DF
:101A900013F0010F19D1226841F214034FF4803181
:101AA000D1502268D35813F4004F1BD110BD10F051
:101AB00043FE226841F214034021D150012384F8EF
:101AC0004430002384F84530E5E7FFF7D3FF216871
:101AD000012341F214028B5084F84430002384F82F
:101AE0004530D8E72046FFF7C6FF226841F21403CD
:101AF0004FF40041D150012384F84430002384F88E
:101B00004530D3E7F8B590F84430DBB2822B33D0C0
:101B100016460546822380F844300268136903F0B4
:101B20001C03048AE402A4B223438C0104F4F86485
:101B30001C4344F001041461FFF730FA074614F027
:101B4000010F10D0FFF72AFAC01BB0F5803F02D278
:101B50002B681C69F3E7012385F84430002385F8DE
:101B60004530032007E02B685B699BB2336001239B
:101B700085F844300020F8BD0220FCE790F844309E
:101B8000DBB2422B32D070B50546422380F8443098
:101B90000068036903F01C032C8AE402A4B2234307
:101BA0008C0104F4F8641C4344F0030492B24261D3
:101BB0002B681C61FFF7F2F9064614F0010F10D0F4
:101BC000FFF7ECF9801BB0F5803F02D22B681C694F
:101BD000F3E7012385F84430002385F845300320DE
:101BE00003E0012385F84430002070BD02207047D7
:101BF00070B582B000230193002800F00E810446E6
:101C000090F84430002B34D000230093844B5A6C5E
:101C100042F480425A645B6C03F480430093009B5F
:101C2000804B5A6822F400025A605A68216A0A43BB
:101C30005A60236803F580531A6842F001021A6063
:101C4000FFF7ACF90546236803F58052126812F0DD
:101C5000010F13D0FFF7A2F9401BB0F5FA7FF2D9BC
:101C6000032584F84450002384F84530284602B008
:101C700070BD80F8453010F0DFFCC5E71D6925F028
:101C80001C0500F083FE684B0344684A934255D814
:101C900045F0080523681D614FF4004200212046ED
:101CA000FFF76CFF0546002860D1FF20FFF77CF9A5
:101CB0006368002B00F09180FFF770F9064601AAD7
:101CC00001212046FFF71EFFFFF768F9801B41F254
:101CD0008833984252D8019B13F0040FEFD04FF491
:101CE000805200212046FFF749FF002852D1FFF71C
:101CF00055F9064601AA01212046FFF703FFFFF729
:101D00004DF9801B41F2883398424BD8019B13F068
:101D1000200FEFD001AA1F212046FFF7F3FE002875
:101D20004CD1019B13F0100F50D04FF40062E260D1
:101D300013F0040F4DD00023A3605EE03C4B03443E
:101D40003C4A934202D845F00C05A3E73A4B0344C2
:101D50003A4A93429ED93A4B03443A4A934202D8B4
:101D600045F0040596E745F0100593E7012120466C
:101D7000FFF7A8FC012584F8445077E701212046AD
:101D8000FFF7A0FC012384F84430002384F8453099
:101D900003256BE701212046FFF794FC012584F819
:101DA000445063E701212046FFF78CFC012384F8AF
:101DB0004430002384F84530032557E701212046AD
:101DC000FFF780FC012584F844504FE70022E260D1
:101DD000AEE74FF48043A3600FE0E268C2F3CF02A6
:101DE000A368C3F34F031A4300212046FFF7C6FE42
:101DF00058B940F6FF70FFF7D7F800212046FFF7EB
:101E000061FC012384F8443030E701212046FFF7CC
:101E100059FC012584F8445028E7012526E700BF36
:101E2000003802400038014000D3CEFEBFE1E4009C
:101E300040F1E9FD3F787D0100796CFCFF596202B9
:101E4000001F0AFA7FF0FA0238B590F84530012BEE
:101E50001AD00446012580F84550022380F844300A
:101E6000FFF7EEFB2046FFF700FC2046FFF712FCD1
:101E70002046FFF7BFFB2046FFF7C4FB84F8445021
:101E8000002084F8450038BD0220FCE710B40A4960
:101E90000C6924F440740C610C6944F440740C61C6
:101EA0000C6944F001040C610260BFF36F8F436062
:101EB0005DF8044B704700BF003C0240074B1A69B5
:101EC00022F440721A611A6942F400721A611A69A6
:101ED00042F001021A610160704700BF003C0240FD
:101EE000074B1A6922F440721A611A6942F480722F
:101EF0001A611A6942F001021A610180704700BF3D
:101F0000003C0240064B1A6922F440721A611A69B9
:101F10001A611A6942F001021A610170704700BF2C
:101F2000003C0240204BDB6813F0100F07D01F4A23
:101F3000D36943F01003D3611B4B1022DA601A4BB4
:101F4000DB6813F0200F07D0184AD36943F0080369
:101F5000D361154B2022DA60134BDB6813F0400F7E
:101F600007D0124AD36943F00403D3610E4B4022D9
:101F7000DA600D4BDB6813F0800F07D00B4AD36992
:101F800043F00203D361084B8022DA60064BDB6822
:101F900013F0020F07D0054AD36943F02003D36141
:101FA000014B0222DA607047003C0240E4D6002078
:101FB000094B1B69002B01DB00207047064B074AC9
:101FC0005A6002F188325A601B69002B01DB002045
:101FD00070470120704700BF003C02402301674565
:101FE000034A136943F0004313610020704700BFA8
:101FF000003C024038B50446154B0022DA61FEF77A
:10200000CDFF0546134BDB6813F4803F0AD0B4F1D3
:10201000FF3FF7D0CCB1FEF7C1FF401BA042F1D982
:1020200003200DE00B4BDB6813F0010F02D0094BCE
:102030000122DA60074BDB6813F0F20F01D10020B8
:1020400038BDFFF76FFF0120FAE70320F8E700BF74
:10205000E4D60020003C0240F8B51D4C247E012C43
:1020600034D01F4616460D460446194B01221A76F7
:102070004CF25030FFF7BEFF014698B9BCB1012CBD
:102080001AD0022C1DD032463B462846FFF7FEFEF2
:102090004CF25030FFF7AEFF01460E4A136923F0B1
:1020A000010313610A4B00221A760846F8BDF1B20B
:1020B0002846FFF727FFEBE7B1B22846FFF710FFEE
:1020C000E6E731462846FFF7F9FEE1E70221ECE7B3
:1020D000E4D60020003C024010B449B1012921D0CF
:1020E000022902D04FF4407403E04FF4007400E082
:1020F00000240E4B196921F4407119611A692243B9
:102100001A611A6922F0F8021A611A6942EAC000DB
:1021100040F0020018611A6942F480321A615DF8D9
:10212000044B70474FF48074E3E700BF003C02406B
:1021300000230F2B00F2D780F0B583B039E00722DF
:1021400000E00022AA403A430234674D45F82420BB
:10215000664A1468F24302EA04054F6817F4803FA8
:1021600001D046EA0405614C2560646802EA040572
:102170004F6817F4003F01D046EA04055B4C6560E8
:10218000A46802EA04054F6817F4801F01D046EAEC
:102190000405564CA560E46822404D6815F4001F04
:1021A00001D046EA0402514CE26001330F2B00F2E9
:1021B000988001229A400C6804EA0206B242F4D1E7
:1021C0004C68651E012D03D9112C01D0122C12D19F
:1021D00085685F000324BC4025EA0405CC68BC4048
:1021E0002C438460456825EA02054C68C4F300125C
:1021F0009A402A434260C4685F000322BA40D24337
:1022000014408D68BD402543C5604C68022C01D048
:10221000122C13D1DD08083550F825E003F007042F
:102220004FEA840C0F2404FA0CF42EEA040E0C6915
:1022300004FA0CF444EA0E0440F8254004682240F5
:102240004C6804F00304BC40224302604A6812F068
:10225000805FAAD000220192254A546C44F4804445
:102260005464526C02F480420192019A9C08A51CAD
:102270001D4A52F8257003F0030295000F22AA4070
:1022800027EA02071B4A90423FF45BAF02F58062E7
:1022900090421AD002F58062904218D002F5806216
:1022A000904216D002F58062904214D002F580620E
:1022B000904212D002F58062904210D002F5806206
:1022C00090423FF43CAF08223CE701223AE7022269
:1022D00038E7032236E7042234E7052232E70622F4
:1022E00030E703B0F0BD704700380140003C0140CA
:1022F00000380240000002400369194201D1002069
:1023000070470120704712B90904816170478161EB
:10231000704708B338B5044603684CF6CC421A60DF
:10232000036845F255521A60036842685A600368B0
:1023300082689A60FEF732FE05462368DA6832B199
:10234000FEF72CFE401B3028F7D9032003E04AF6A5
:10235000AA221A60002038BD0120704703684AF69F
:10236000AA221A6000207047002800F0E48170B5AE
:1023700082B00446036813F0010F3BD0A74B9B6863
:1023800003F00C03042B2CD0A44B9B6803F00C032C
:10239000082B21D06368B3F5803F4FD0B3F5A02F51
:1023A00052D09E4B1A6822F480321A601A6822F4C6
:1023B00080221A606368002B50D0FEF7EFFD0546BF
:1023C000964B1B6813F4003F14D1FEF7E7FD401B4A
:1023D0006428F5D90320B3E1904B5B6813F4800FB8
:1023E000D8D08E4B1B6813F4003F03D06368002BDA
:1023F00000F0A381236813F0020F55D0874B9B6830
:1024000013F00C0F3ED0854B9B6803F00C03082B98
:1024100033D0E368002B68D0814B01221A60FEF7AD
:10242000BDFD05467D4B1B6813F0020F54D1FEF72E
:10243000B5FD401B0228F5D9032081E1774A1368D6
:1024400043F480331360B5E7744B1A6842F480227A
:102450001A601A6842F480321A60ABE7FEF79EFDFC
:1024600005466E4B1B6813F4003FC3D0FEF796FD84
:10247000401B6428F5D9032062E1684B5B6813F4C4
:10248000800FC6D1654B1B6813F0020F04D0E368C0
:10249000012B01D0012053E1604A136823F0F803B7
:1024A000216943EAC1031360236813F0080F40D089
:1024B000636963B35B4B01221A60FEF76FFD05464B
:1024C000564B5B6F13F0020F33D1FEF767FD401BD5
:1024D0000228F5D9032033E1504A136823F0F803AA
:1024E000216943EAC1031360DEE74D4B00221A6005
:1024F000FEF754FD0546494B1B6813F0020FD3D07D
:10250000FEF74CFD401B0228F5D9032018E1454B8E
:1025100000221A60FEF742FD0546404B5B6F13F048
:10252000020F06D0FEF73AFD401B0228F5D9032022
:1025300006E1236813F0040F79D0384B1B6C13F0BD
:10254000805F33D100230193344B1A6C42F08052E8
:102550001A641B6C03F080530193019B0125324BDD
:102560001B6813F4807F23D0A368012B34D0052B84
:1025700038D02A4B1A6F22F001021A671A6F22F024
:1025800004021A67A368002B36D0FEF707FD064643
:10259000224B1B6F13F0020F48D1FEF7FFFC801B8C
:1025A00041F288339842F3D90320C9E00025D6E7E9
:1025B0001D4A136843F480731360FEF7EFFC064670
:1025C000194B1B6813F4807FCED1FEF7E7FC801B0C
:1025D0000228F5D90320B3E0104A136F43F001033A
:1025E0001367CFE70D4B1A6F42F004021A671A6F98
:1025F00042F001021A67C5E7FEF7D0FC0646074B1A
:102600001B6F13F0020F11D0FEF7C8FC801B41F2C4
:1026100088339842F3D9032092E000BF003802408B
:1026200000004742800E474200700040EDB9A369A8
:10263000002B00F08480454A926802F00C02082AC0
:1026400051D0022B17D0424B00221A60FEF7A6FC95
:1026500004463E4B1B6813F0007F42D0FEF79EFC01
:10266000001B0228F5D903206AE0384A136C23F0D6
:1026700080531364DBE7364B00221A60FEF78EFCB2
:102680000546324B1B6813F0007F06D0FEF786FC30
:10269000401B0228F5D9032052E0E369226A134364
:1026A000626A43EA8213A26A5208013A43EA024389
:1026B000E26A43EA0263254A5360254B01221A600D
:1026C000FEF76CFC0446214B1B6813F0007F06D11B
:1026D000FEF764FC001B0228F5D9032030E000203F
:1026E0002EE000202CE0012B2CD0184B9B6803F42B
:1026F0008001E269914201D0012021E003F03F0214
:10270000216A8A4201D001201AE0616A47F6C0724C
:102710001A408A4201D0012012E003F44032A16A3B
:102720008A4201D001200BE003F07063E26A934219
:102730000AD0012004E001207047012000E00020C1
:1027400002B070BD0120FBE70020F9E7003802402D
:1027500060004742324B9B6803F00C03042B5CD0B3
:10276000082B01D02F4870472DE9F04B2C4B5A68AD
:1027700002F03F025B6813F4800F2BD0284B5B689C
:10278000C3F388131E4600275C010025E41A65EB9D
:102790000705A90141EA9461A001001B61EB050155
:1027A000CB0043EA5073C400A01943EB07014B026E
:1027B00043EAD0534402204619460023FEF7ECF9C1
:1027C000174B5B68C3F3014301335B00B0FBF3F0CD
:1027D000BDE8F08B124B5B68C3F388131E460027DD
:1027E0005C010025E41A65EB0705A90141EA946143
:1027F000A001001B61EB0501CB0043EA5073C4004C
:10280000A01943EB07018B0243EA90538402204650
:1028100019460023FEF7C0F9D2E70348704700BF0E
:10282000003802400024F40000127A00002800F072
:102830009E8070B50446504B1B6803F00F038B421B
:1028400009D2CBB24C4A1370136803F00F038B42CA
:1028500001D0012070BD236813F0020F17D013F0D0
:10286000040F04D0454A936843F4E053936023680F
:1028700013F0080F04D0414A936843F46043936017
:102880003E4A936823F0F003A068034393600D462B
:10289000236813F0010F32D06368012B21D09A1EF8
:1028A000012A25D9354A126812F0020F61D0334946
:1028B0008A6822F0030213438B60FEF76FFB064623
:1028C0002E4B9B6803F00C036268B3EB820F16D0AB
:1028D000FEF764FB801B41F288339842F0D9032055
:1028E000B8E7264A126812F4003FE0D10120B1E7B0
:1028F000224A126812F0007FD9D10120AAE71E4BAC
:102900001B6803F00F03AB4209D9EAB21A4B1A70E5
:102910001B6803F00F03AB4201D001209AE7236844
:1029200013F0040F06D0154A936823F4E053E168CE
:102930000B439360236813F0080F07D00F4A936886
:1029400023F46043216943EAC1039360FFF702FF68
:102950000A4B9B68C3F30313094AD35CD840094B65
:102960001860094B186811F0F5FA002072E7012091
:10297000704701206EE700BF003C02400038024073
:1029800088860108D000002004000020014B186850
:10299000704700BFD000002008B5FFF7F7FF044BD9
:1029A0009B68C3F34233034AD35CD84008BD00BFE1
:1029B00000380240988601080F2303600B4B9A6889
:1029C00002F0030242609A6802F0F00282609A68A4
:1029D00002F4E052C2609B68DB0803F4E053036139
:1029E000034B1B6803F00F030B6070470038024075
:1029F000003C024030B4036A23F001030362056A1D
:102A00004268846924F073040B681C4325F00205B6
:102A10008B682B43104DA84203D005F58065A84272
:102A200005D123F00803CD682B4323F004030A4D9E
:102A3000A84203D005F58065A84205D122F4407272
:102A40004D6915438A692A43426084614A6842633A
:102A5000036230BC704700BF0000014030B4036A1D
:102A600023F480730362036A4268C46924F0730428
:102A70000D682C4323F400738D6843EA0523124D3F
:102A8000A84203D005F58065A84206D123F400636F
:102A9000CD6843EA052323F480630B4DA84203D09D
:102AA00005F58065A84207D122F440524D6942EAFB
:102AB00005128D6942EA05124260C4614A68C26328
:102AC000036230BC704700BF0000014030B4036AAD
:102AD00023F480530362036A4468C26922F4E64225
:102AE0000D6842EA052223F400538D6843EA05335A
:102AF000094DA84203D005F58065A84204D124F40D
:102B000080444D6944EA85144460C2614A680264A5
:102B1000036230BC704700BF0000014010B4036A7C
:102B2000046A24F001040462846924F0F00444EA95
:102B3000021223F00A030B43826103625DF8044B27
:102B4000704710B4036A23F0100303628469036AB8
:102B500024F4704444EA023223F0A00343EA011350
:102B6000826103625DF8044B7047836823F0700351
:102B7000194341F00701816070470268D36843F050
:102B80000103D3600268936803F00703062B03D0A8
:102B9000136843F0010313600020704770477047CB
:102BA00070477047704710B5044603681A6912F001
:102BB000020F11D0DA6812F0020F0DD06FF002028E
:102BC0001A610123037703689B6913F0030F70D028
:102BD000FFF7E6FF0023237723681A6912F0040F3A
:102BE00012D0DA6812F0040F0ED06FF004021A61EE
:102BF0000223237723689B6913F4407F5FD020462C
:102C0000FFF7CEFF0023237723681A6912F0080F1D
:102C100012D0DA6812F0080F0ED06FF008021A61B5
:102C2000042323772368DB6913F0030F4ED020467B
:102C3000FFF7B6FF0023237723681A6912F0100FFD
:102C400012D0DA6812F0100F0ED06FF010021A6175
:102C5000082323772368DB6913F4407F3DD02046A7
:102C6000FFF79EFF0023237723681A6912F0010FF4
:102C700003D0DA6812F0010F36D123681A6912F016
:102C8000800F03D0DA6812F0800F34D123681A69FC
:102C900012F0400F03D0DA6812F0400F32D12368EF
:102CA0001A6912F0200F03D0DA6812F0200F30D129
:102CB00010BDFFF774FF2046FFF773FF8AE7204639
:102CC000FFF76DFF2046FFF76CFF9BE72046FFF7FD
:102CD00066FF2046FFF765FFACE72046FFF75FFF82
:102CE0002046FFF75EFFBDE76FF001021A61204644
:102CF00010F044FDC1E76FF080021A61204600F039
:102D00003AFAC3E76FF040021A612046FFF74AFF24
:102D1000C5E76FF020021A61204600F02BFAC7E7E2
:102D20000368304A904212D0B0F1804F0FD0A2F524
:102D30007C4290420BD002F58062904207D002F5AF
:102D40008062904203D002F57842904203D123F092
:102D500070034A681343234A90422AD0B0F1804F4F
:102D600027D0A2F57C42904223D002F580629042A7
:102D70001FD002F5806290421BD002F5784290424B
:102D800017D002F57052904213D002F58062904243
:102D90000FD002F5806290420BD0A2F5983290429B
:102DA00007D002F58062904203D002F58062904223
:102DB00003D123F44073CA68134323F080034A69A4
:102DC000134303608B68C3620B688362054B9842B0
:102DD00003D003F58063984201D10B69036301239B
:102DE0004361704700000140A8B110B5044690F857
:102DF0003D305BB1022384F83D30211D2068FFF790
:102E00008FFF012384F83D30002010BD80F83C3056
:102E100011F054F8EEE701207047A8B110B5044650
:102E200090F83D305BB1022384F83D30211D2068CD
:102E3000FFF776FF012384F83D30002010BD80F8B5
:102E40003C30FFF7ABFEEEE70120704730B4036A79
:102E500023F010030362036A4468826922F4E642A5
:102E60000D6842EA052223F020038D6843EA05132A
:102E7000114DA84203D005F58065A84206D123F084
:102E80008003CD6843EA051323F040030A4DA842AE
:102E900003D005F58065A84207D124F440644D694C
:102EA00044EA85048D6944EA8504446082614A6885
:102EB0008263036230BC70470000014038B590F86F
:102EC0003C30012B66D00D460446012380F83C308F
:102ED000022380F83D300C2A1AD8DFE802F00719E7
:102EE0001919201919193419191947000068FFF721
:102EF00081FD2268936943F0080393612268936916
:102F000023F0040393612268936929690B43936159
:102F1000012384F83D30002084F83C0038BD00686F
:102F2000FFF794FF2268936943F40063936122687A
:102F3000936923F48063936122689369296943EA62
:102F400001239361E4E70068FFF788FD2268D369F5
:102F500043F00803D3612268D36923F00403D361EB
:102F60002268D36929690B43D361D1E70068FFF771
:102F7000ADFD2268D36943F40063D3612268D3694D
:102F800023F48063D3612268D369296943EA01236A
:102F9000D361BDE70220C1E710B4846824F47F4404
:102FA00042EA03230B43234383605DF8044B7047DD
:102FB00090F83C30012B66D010B50446012380F810
:102FC0003C30022380F83D300268936823F47F434D
:102FD00023F0770393600B68402B4AD013D9602B02
:102FE0003DD01ED9702B28D0B3F5005F30D1CB680F
:102FF0004A6889680068FFF7CFFF2268936843F446
:103000008043936024E0102B06D004D9202B03D0FA
:10301000302B01D01CE0DBB919462068FFF7A5FD75
:1030200016E0502B14D1CA6849680068FFF776FD96
:1030300050212068FFF799FD0AE0CB684A6889684B
:103040000068FFF7A9FF2268936843F07703936055
:10305000012384F83D30002084F83C0010BDCA688C
:1030600049680068FFF76DFD60212068FFF77DFD6E
:10307000EEE7CA6849680068FFF750FD4021206804
:10308000FFF773FDE4E70220704710B401F01F0161
:10309000012303FA01F4036A23EA04030362036AC7
:1030A0008A40134303625DF8044B704710B5044631
:1030B00001220068FFF7E9FF23680B4A934203D01F
:1030C00002F58062934203D15A6C42F400425A6482
:1030D0002268936803F00703062B03D0136843F0BC
:1030E00001031360002010BD0000014090F83C3047
:1030F000012B3BD030B4012380F83C30022380F810
:103100003D3003685C689D6824F070040A682243BF
:103110005A600368164A93421AD0B3F1804F17D011
:10312000A2F57C42934213D002F5806293420FD005
:1031300002F5806293420BD002F57842934207D0A9
:1031400002F57052934203D0A2F59432934204D117
:1031500025F080054A6815439D60012380F83D30C5
:10316000002380F83C30184630BC7047022070477E
:103170000000014070477047842801D00330704739
:1031800000207047EFF30580003018BF0120704722
:1031900008B501F073FA002008BD08B5FFF7F2FF8B
:1031A00010B901F0A7FA08BD01F0AAFAFBE72DE972
:1031B000F04387B004460F464569A5B1866996B1CC
:1031C000D0F80480D0F80090B0F90800FFF7D4FFE1
:1031D00022690296019500903B464946404601F01F
:1031E000E1F9059013E065682668D4F81080B4F919
:1031F0000800FFF7C1FF05AB019300903B461FFAA3
:1032000088F23146284601F006FA012803D10598D4
:1032100007B0BDE8F0830020FAE708B5034600B91F
:103220000123184601F074FB002008BD08B5416871
:1032300019B1012000F063FD08BD012000F054FD2C
:10324000FAE7000030B583B00023019350B30C4679
:103250000546B1F1FF3F02D019B91C4601E04FF01D
:10326000FF34FFF78FFF90B101AA0021284600F03C
:103270008FFF012818D1019BC3B10D4B4FF0805235
:103280001A60BFF34F8FBFF36F8F002006E0214617
:10329000284600F0AFFE012802D1002003B030BD67
:1032A000FF20FBE78020F9E7FF20F7E70020F5E7A4
:1032B00004ED00E010B582B0044600230193FFF74F
:1032C00061FF88B101A9204600F08EFD012816D1CA
:1032D000019BB3B10D4B4FF080521A60BFF34F8F7B
:1032E000BFF36F8F002008E000231A4619462046DE
:1032F00000F030FC012806D1002002B010BDFF20F4
:10330000FBE70020F9E7FF20F7E700BF04ED00E04E
:1033100010B582B0436863B101291AD1032200922B
:1033200000221146012000F0A5FB0446204602B011
:1033300010BD01290FD103220021012000F0E2FB82
:1033400004460028F2D000231A46194600F002FC79
:10335000ECE70024EAE70024E8E7000030B583B09A
:103360000023019350B30C460546B1F1FF3F02D054
:1033700019B91C4601E04FF0FF34FFF703FF90B18D
:1033800001AA0021284600F003FF012818D1019B63
:10339000C3B10D4B4FF080521A60BFF34F8FBFF394
:1033A0006F8F002006E02146284600F023FE01280A
:1033B00002D1002003B030BDFF20FBE78020F9E7F9
:1033C000FF20F7E70020F5E704ED00E010B582B03C
:1033D000044600230193FFF7D5FE88B101A92046DA
:1033E00000F002FD012816D1019BB3B10D4B4FF047
:1033F00080521A60BFF34F8FBFF36F8F002008E039
:1034000000231A461946204600F0A4FB012806D1E5
:10341000002002B010BDFF20FBE70020F9E7FF20ED
:10342000F7E700BF04ED00E010B50446FFF7AAFE81
:1034300020B9204600F036FF002010BD8220FCE7B6
:1034400070B505464668142001F0C8FE0446E0B198
:10345000033626F003062B688360C66000230361F1
:10346000286801F0BBFE6060C8B1286800FB06F068
:1034700001F0B4FE206050B1002303E06268002137
:10348000D15401332A689A42F8D8204670BD60684A
:1034900001F01EFF204601F01BFF0024F5E7204647
:1034A00001F016FF0024F0E770B50446FFF76AFE4E
:1034B00058B1EFF311854FF0500383F31188BFF338
:1034C0006F8FBFF34F8F002208E0054601F0E2FC4A
:1034D000F9E76168C818C95C49B10132A168914235
:1034E0000DD9236913449942F3D80023F1E701224F
:1034F00002702268E66803FB0626236100E00026CE
:10350000FFF740FE18B185F31188304670BD01F019
:10351000E3FCFAE710B582B082680AB1C36833B938
:1035200000224168006800F0EDFA02B010BD416869
:1035300000680024009400F09DFAF6E730B585B0ED
:103540000446019100230393154602B90125FFF7B4
:1035500019FE98B1002303AA01A9204600F0DEFB62
:10356000012818D1039BC3B10D4B4FF080521A6054
:10357000BFF34F8FBFF36F8F002008E000232A4670
:1035800001A9204600F0E6FA012802D1002005B08A
:1035900030BDFF20FBE7FF20F9E70020F7E700BF81
:1035A00004ED00E070B584B004460291002301935D
:1035B00049B10D46164600230393B2F1FF3F0BD0ED
:1035C00062B91E460AE004AB802243F8102D93E84E
:1035D000070084E807002AE04FF0FF36FFF7D2FD2E
:1035E000B0B103AA01A9284600F0D2FD01280CD0F1
:1035F00000230093039BABB1114B4FF080521A6034
:10360000BFF34F8FBFF36F8F0CE010230093F1E7F0
:10361000324601A9284600F041FC01280AD066B9CB
:10362000002300936B4693E8070084E807002046D8
:1036300004B070BD10230093F4E74023F1E700BF0E
:1036400004ED00E030B585B004460368019343689B
:1036500002930023039385680C2001F0BFFD2860CE
:10366000A3681B68FBB11C60A3681D6800220421CD
:10367000206800F047FA6860A3681D686B684BB16A
:1036800001A8FFF7DDFEA860A3681868836833B15E
:1036900005B030BD284601F01BFE0020F8E701F020
:1036A00017FE0020F4E70020F2E720B108B580689B
:1036B000FFF7FAFE08BD00207047000010B584B087
:1036C000019128B3044600230393FFF75BFD98B1F3
:1036D000002303AA01A9606800F020FB01281AD189
:1036E000039BD3B10E4B4FF080521A60BFF34F8F44
:1036F000BFF36F8F00200CE000231A4601A9606819
:1037000000F028FA012801D1002002E0FF2000E0AB
:10371000802004B010BDFF20FBE70020F9E700BFC8
:1037200004ED00E070B584B00446029149B10D4645
:10373000164600230393B2F1FF3F0BD062B91E4639
:103740000AE004AB802243F8102D93E8070084E8D8
:1037500007002AE04FF0FF36FFF714FDB0B103AACF
:1037600001A9686800F014FD01280CD00023009323
:10377000039BABB1114B4FF080521A60BFF34F8FD8
:10378000BFF36F8F0CE020230093F1E7324601A9CD
:10379000686800F083FB01280AD066B90023009313
:1037A0006B4693E8070084E80700204604B070BD2C
:1037B00020230093F4E74023F1E700BF04ED00E08D
:1037C00010B50446FFF7DEFC18B9204600F035FDC1
:1037D00010BD204600F044FDFAE710B50446FFF79F
:1037E000D1FC20B9204600F05DFD002010BD8220F4
:1037F000FCE700F1080343604FF0FF328260C360D2
:10380000036100230360704700230361704743682E
:103810004B609A688A609A68516099600861036891
:1038200001330360704730B40D68B5F1FF3F02D03B
:1038300000F1080202E0026904E01A4653681C68BD
:10384000AC42FAD953684B6099608A605160086154
:1038500003680133036030BC7047036942688168C4
:1038600091608268416851605A68824206D00022A5
:1038700002611A68013A1A601868704782685A60D3
:10388000F5E7436A23B1036B1868C0F1070070477E
:103890000020704710B5044601F0FCFAA26BE36B00
:1038A0009A4204D0002401F017FB204610BD0124E9
:1038B000F9E710B5044601F0EDFAA36B23B100243B
:1038C00001F00AFB204610BD0124F9E770B504465B
:1038D0001646856B026C5AB903681BB1002001358E
:1038E000A56370BD406801F0A1F900236360F6E7AD
:1038F0006EB9806812F077F9226CA3681344A36054
:103900006268934219D32368A3600020E7E7C06888
:1039100012F069F9226C5242E3681344E3602168B3
:103920008B4202D263681A44E260022E01D000206A
:10393000D5E725B1013D0020D1E70020CFE70020E9
:10394000CDE7026C72B110B5C3681344C36044681C
:10395000A34201D30368C3600C46C168204612F03D
:1039600042F910BD704738B5054601F093FA95F855
:10397000454064B203E001F0DFF8013C64B2002C82
:1039800008DD6B6A33B105F1240001F049F8002825
:10399000F3D0F0E7FF2385F8453001F09DFA01F000
:1039A00079FA95F8444064B203E001F0C5F8013CAF
:1039B00064B2002C08DD2B6933B105F1100001F071
:1039C0002FF80028F3D0F0E7FF2385F8443001F00A
:1039D00083FA38BD38B540B94FF0500383F31188EE
:1039E000BFF36F8FBFF34F8FFEE704460D4601F024
:1039F00051FA2168E26B236C03FB02106060002027
:103A0000A063A160013A02FB0313E360FF2384F883
:103A1000443084F84530A5B923691BB901F05CFA3C
:103A2000012038BD04F1100000F0FAFF0028F5D0A5
:103A3000084B4FF080521A60BFF34F8FBFF36F8F68
:103A4000ECE704F11000FFF7D4FE04F12400FFF7C7
:103A5000D0FEE3E704ED00E010B5029B0C4639B15F
:103A60001A60D8631C6401211846FFF7B3FF10BD2C
:103A70001B60F6E740B94FF0500383F31188BFF3A2
:103A80006F8FBFF34F8FFEE710B584B0044653B17C
:103A900092B189B94FF0500383F31188BFF36F8F50
:103AA000BFF34F8FFEE74FF0500383F31188BFF34E
:103AB0006F8FBFF34F8FFEE74AB941B14FF050030C
:103AC00083F31188BFF36F8FBFF34F8FFEE748205A
:103AD00003900398482808D04FF0500383F31188CF
:103AE000BFF36F8FBFF34F8FFEE720461C460123C5
:103AF00084F8463000949DF81830FFF7ADFF20465B
:103B000004B010BD40B94FF0500383F31188BFF3E8
:103B10006F8FBFF34F8FFEE7F0B583B0064611B14C
:103B200001FB00F000E0002017460C46483001F091
:103B300055FB054650B1002380F8463000903B46C7
:103B400000F1480221463046FFF786FF284603B0C1
:103B5000F0BD0000F0B585B0019260B1044699B99E
:103B6000026C8AB14FF0500383F31188BFF36F8F5B
:103B7000BFF34F8FFEE74FF0500383F31188BFF37D
:103B80006F8FBFF34F8FFEE7022B0BD1E26B012A41
:103B900008D04FF0500383F31188BFF36F8FBFF34A
:103BA0004F8FFEE71E460F4600F0CEFF50B9019B37
:103BB00053B14FF0500383F31188BFF36F8FBFF3FE
:103BC0004F8FFEE700253AE0002538E032463946BF
:103BD0002046FFF77BFE636A4BB9A8B13B4B4FF021
:103BE00080521A60BFF34F8FBFF36F8F0CE004F168
:103BF000240000F015FF38B1344B4FF080521A60AA
:103C0000BFF34F8FBFF36F8F01F066F9012005B04E
:103C1000F0BD01F061F90020F9E702A800F042FFD1
:103C2000012519E0002384F8443021E0002384F8C2
:103C3000453023E02046FFF796FE00F0F1FD01F04D
:103C400029F9A26BE36B9A42C0D3022EBED0019B2E
:103C5000002BDED0002DE0D001F03EF900F040FD59
:103C600001F018F994F844305BB2B3F1FF3FD9D0BA
:103C700094F845305BB2B3F1FF3FD7D001F02CF997
:103C800001A902A800F018FFC8B92046FFF702FEFC
:103C90000028CFD0019904F1100000F0A7FE2046C3
:103CA000FFF761FE00F0BCFD0028C8D1074B4FF0C4
:103CB00080521A60BFF34F8FBFF36F8FBFE720466C
:103CC000FFF751FE00F0ACFD0020A0E704ED00E09E
:103CD00048B108B5002141600160C1600B460A4649
:103CE000FFF738FF08BD704710B5024600210120DC
:103CF000FFF708FF0446FFF7EBFF204610BD10B5A5
:103D000082B000900B46002211460120FFF7B2FE60
:103D10000446FFF7DDFF204602B010BD2DE9F84351
:103D200060B1044699B9006C88B14FF0500383F339
:103D30001188BFF36F8FBFF34F8FFEE74FF0500333
:103D400083F31188BFF36F8FBFF34F8FFEE7022B12
:103D50000BD1E06B012808D04FF0500383F311889A
:103D6000BFF36F8FBFF34F8FFEE71F469046894624
:103D700001F0B6F9EFF311864FF0500383F3118889
:103D8000BFF36F8FBFF34F8FA26BE36B9A4203D3E6
:103D9000022F01D000200FE094F845506DB23A4652
:103DA00049462046FFF792FDB5F1FF3F08D06B1C56
:103DB0005BB284F84530012086F31188BDE8F883B2
:103DC000636A5BB104F1240000F02AFE40B1B8F14F
:103DD000000F07D00120C8F80000EDE70120EBE755
:103DE0000120E9E70120E7E760B170B50446036C04
:103DF0008BB14FF0500383F31188BFF36F8FBFF384
:103E00004F8FFEE74FF0500383F31188BFF36F8F9E
:103E1000BFF34F8FFEE703682BB30E4601F060F946
:103E2000EFF311854FF0500383F31188BFF36F8FC9
:103E3000BFF34F8FA26BE36B934226D994F84530C2
:103E40005BB20132A263B3F1FF3F18D1636AF3B1F1
:103E500004F1240000F0E4FDD8B1E6B101203060A7
:103E600085F3118870BD4368002BD6D04FF0500306
:103E700083F31188BFF36F8FBFF34F8FFEE70133DA
:103E80005BB284F845300120EAE70020E8E7012032
:103E9000E6E70120E4E70120E2E70000F0B585B0A5
:103EA000019260B1044699B9036C8BB14FF0500395
:103EB00083F31188BFF36F8FBFF34F8FFEE74FF08F
:103EC000500383F31188BFF36F8FBFF34F8FFEE76B
:103ED0000F4600F039FE50B9019B53B14FF050032B
:103EE00083F31188BFF36F8FBFF34F8FFEE7002678
:103EF0003EE000263CE039462046FFF722FD013D2A
:103F0000A563236923B900F0E7FF012005B0F0BDE8
:103F100004F1100000F084FD0028F4D0344B4FF081
:103F200080521A60BFF34F8FBFF36F8FEBE700F043
:103F3000D3FF0020EAE702A800F0B4FD012621E04B
:103F4000002384F8443029E0002384F845302BE036
:103F50002046FFF708FD00F063FC09E02046FFF76C
:103F600002FD00F05DFC2046FFF7A3FC00283DD1D8
:103F700000F090FFA56B002DBDD1019B002BD6D08A
:103F8000002ED8D000F0A8FF00F0AAFB00F082FFBE
:103F900094F844305BB2B3F1FF3FD1D094F8453090
:103FA0005BB2B3F1FF3FCFD000F096FF01A902A8AA
:103FB00000F082FD0028D1D12046FFF77AFC0028CE
:103FC000C6D0019904F1240000F010FD2046FFF74F
:103FD000CAFC00F025FC0028CAD1054B4FF08052E6
:103FE0001A60BFF34F8FBFF36F8FC1E700208DE7DB
:103FF00004ED00E070B584B0019140B94FF050037A
:1040000083F31188BFF36F8FBFF34F8FFEE7044632
:10401000036C43B14FF0500383F31188BFF36F8FEC
:10402000BFF34F8FFEE700F08FFD50B9019B5BB1EE
:104030004FF0500383F31188BFF36F8FBFF34F8F9F
:10404000FEE700252E4651E000252E464EE0013BBE
:10405000A363236813B900F0A3FE6060236963B112
:1040600004F1100000F0DCFC38B1484B4FF08052F6
:104070001A60BFF34F8FBFF36F8F00F02DFF012544
:10408000284604B070BD45B14FF0500383F311884A
:10409000BFF36F8FBFF34F8FFEE700F01DFFEFE719
:1040A00002A800F0FFFC01262AE0002384F8443037
:1040B00032E0002384F8453034E000F0EBFE606825
:1040C00000F052FD054600F007FF3BE02046FFF7F9
:1040D0004AFC00F0A5FB09E02046FFF744FC00F095
:1040E0009FFB2046FFF7E5FB002840D100F0D2FE01
:1040F000A36B002BABD1019B002BC4D0002ECFD0E3
:1041000000F0EAFE00F0ECFA00F0C4FE94F844304F
:104110005BB2B3F1FF3FC8D094F845305BB2B3F166
:10412000FF3FC6D000F0D8FE01A902A800F0C4FCF1
:104130000028D1D12046FFF7BCFB0028C6D0236859
:10414000002BBAD0019904F1240000F04FFC204666
:10415000FFF709FC00F064FB0028C7D10B4B4FF0C0
:1041600080521A60BFF34F8FBFF36F8FBEE7002DF1
:1041700086D000F08FFE2046FFF783FB0146606883
:1041800000F0ACFD00F0A8FE002579E704ED00E0AA
:104190002DE9F84360B1044699B9036C8BB14FF037
:1041A000500383F31188BFF36F8FBFF34F8FFEE788
:1041B0004FF0500383F31188BFF36F8FBFF34F8F1E
:1041C000FEE71746894600F08BFFEFF311864FF0AC
:1041D000500383F31188BFF36F8FBFF34F8FD4F871
:1041E0003880B8F1000F1DD094F844506DB24946A4
:1041F0002046FFF7A6FB08F1FF33A363B5F1FF3FAD
:1042000005D06B1C5BB284F8443001200BE02369BD
:104210006BB104F1100000F003FC50B15FB101205C
:10422000386000E0002086F31188BDE8F8830120A3
:10423000F9E70120F7E70120F5E740B94FF0500317
:1042400083F31188BFF36F8FBFF34F8FFEE710B575
:10425000044600F01FFEA46B00F03EFE204610BD99
:1042600008B1806B70474FF0500383F31188BFF3A0
:104270006F8FBFF34F8FFEE70023072B0FD8084A3D
:1042800002EBC3025268824201D00133F5E7044ACF
:10429000002142F8331002EBC303596070477047A6
:1042A00004D7002040B94FF0500383F31188BFF3C7
:1042B0006F8FBFF34F8FFEE710B50446FFF7DCFFAB
:1042C00094F8463003B110BD204601F001F8FAE73A
:1042D000074B9B6A1B6833B1054B9A6AD268D26858
:1042E0005268DA627047024B4FF0FF32DA62704771
:1042F000C40200202DE9F04780469946089D099F99
:104300000A9C266B02F18042013A06EB820626F0F7
:10431000070600230F2B07D8C85CE21882F8340088
:10432000CA5C0AB10133F5E7002384F84330062D57
:1043300000D90625E56265644FF0000AC4F848A07C
:10434000201DFFF761FA04F11800FFF75DFA246100
:10435000C5F10705A5616462C4F84CA084F850A0BB
:104360004A464146304600F069FD206007B13C6096
:10437000BDE8F08770B5002407E004EB84029300E9
:1043800010481844FFF735FA0134062CF5D90E4CC5
:1043900004F1BC063046FFF72CFA04F1D00528469C
:1043A000FFF727FA04F11400FFF723FA04F1E40001
:1043B000FFF71FFA2046FFF71CFAA662C4F8F85070
:1043C00070BD00BFF4020020C402002038B50546CD
:1043D00000F060FD264BD3F8FC200132C3F8FC202E
:1043E000D3F8003173B1224BD3F804318BB9204B91
:1043F000D3F80031DA6AEB6A9A420AD81C4BC3F848
:10440000005106E01A4BC3F80051D3F8FC30012BE1
:104410002AD0174CD4F808310133C4F80831EB6ABC
:1044200001229A40D4F80C110A43C4F80C2104F17B
:10443000300003EB83039A00291D1044FFF7E7F9CE
:1044400000F04AFDD4F804316BB1D4F80031DA6AD7
:10445000EB6A9A4207D2074B4FF080521A60BFF3C3
:104460004F8FBFF36F8F38BDFFF784FFD1E700BFD9
:10447000C402002004ED00E010B5044690F851306D
:1044800033B9006B00F024FF204600F021FF10BD7F
:10449000012B0AD0022BFAD04FF0500383F311887E
:1044A000BFF36F8FBFF34F8FFEE700F011FFEEE712
:1044B00038B517E000F0EEFC0D4CD4F8F030DD68B4
:1044C000281DFFF7CAF9D4F8FC30013BC4F8FC30D2
:1044D000D4F81031013BC4F8103100F0FDFC28463F
:1044E000FFF7CAFF024BD3F81031002BE2D138BDE1
:1044F000C402002008B5FFF7DBFF064B1B6B012B46
:10450000F9D9054B4FF080521A60BFF34F8FBFF3BC
:104510006F8FF0E7C402002004ED00E070B50446A0
:104520000E461F4BD3F81451D3F800010430FFF7A7
:1045300094F960B91A4BD3F80021D16A012202FA2A
:1045400001F1D3F80C2122EA0102C3F80C21B4F1E5
:10455000FF3F12D02C44124BD3F800315C60A542CF
:1045600014D80F4DA86AD5F800110431FFF75BF994
:10457000EB6AA34212D9EC6210E0002EEAD00848A0
:10458000D0F800110431FFF742F907E0044BD3F8EB
:10459000F800D3F800110431FFF745F970BD00BFF2
:1045A000C402002070B586B00B9D0C9C45B94FF03D
:1045B000500383F31188BFF36F8FBFF34F8FFEE774
:1045C00044B94FF0500383F31188BFF36F8FBFF3EB
:1045D0004F8FFEE754260496049E542E08D04FF0C9
:1045E000500383F31188BFF36F8FBFF34F8FFEE744
:1045F0002563022584F8515000250395029405ADEA
:1046000001950A9D0095FFF775FE2046FFF7DEFE37
:10461000059806B070BD2DE9F04385B00746884681
:1046200015469946900000F0D9FD08B3064654207F
:1046300000F0D4FD0446B8B10663E4B1002384F869
:104640005130039302940D9B01930C9B00934B46B6
:104650002A4641463846FFF74DFE2046FFF7B6FE94
:10466000012005B0BDE8F083304600F031FEE4E7FC
:104670004FF0FF30F5E74FF0FF30F2E710B588B0AC
:1046800000240594069407AA06A905A80EF02EFD9D
:10469000059B0293069B019300942346079A0D49BC
:1046A0000D48FFF77FFF08B908B010BD4FF0500369
:1046B00083F31188BFF36F8FBFF34F8F074B4FF01A
:1046C000FF32DA620122C3F80421C3F8144100F07A
:1046D00083FCE9E7A0860108F5440008C402002035
:1046E000034AD2F818310133C2F81831704700BFBD
:1046F000C4020020014BD3F814017047C40200200B
:1047000008B500F0EDFC024BD3F8140108BD00BF62
:10471000C40200202DE9F041404BD3F81831002BA2
:104720006CD13E4BD3F814510135C3F81451CDB9B7
:104730009B6A1B6843B14FF0500383F31188BFF3AA
:104740006F8FBFF34F8FFEE7344B9A6AD3F8F810A0
:104750009962C3F8F820D3F81C210132C3F81C2158
:10476000FFF7B6FD2D4BDB6AAB423DD900242B4A47
:10477000D2F80031DB6A03EB830399000A44136B20
:10478000012B42D9012440E00124244B9B6A1B6881
:1047900063B3224B9B6ADB68DE6873689D422AD351
:1047A00006F104084046FFF758F8B36A1BB106F15A
:1047B0001800FFF752F8F36A01229A40174FD7F812
:1047C0000C110A43C7F80C2107F1300003EB8303F7
:1047D0009A0041461044FFF71AF8F26AD7F8003100
:1047E000DB6A9A42D0D2D0E70024CEE70B4B4FF0E1
:1047F000FF32DA62BBE7094AD362B8E7074AD2F868
:1048000020310133C2F820310024044BD3F8243185
:1048100003B101242046BDE8F08100BFC40200209E
:10482000394BD3F8183143B94FF0500383F3118853
:10483000BFF36F8FBFF34F8FFEE770B500F02AFB19
:10484000314BD3F81821013AC3F81821D3F81831A5
:10485000002B54D12C4BD3F8FC3023B9002400F0AA
:104860003BFB204670BD0024274B5B692BB3264DD4
:104870002B6ADC6804F11800FEF7EFFF261D3046B6
:10488000FEF7EBFFE36A01229A40D5F80C110A43C8
:10489000C5F80C2105F1300003EB83039A00314683
:1048A0001044FEF7B4FFE26AD5F80031DB6A9A42A1
:1048B000DAD30122C5F82421D6E70CB1FFF708FDB1
:1048C000114BD3F8204164B1FFF724FF18B10E4B10
:1048D0000122C3F82421013CF6D10B4B0022C3F87E
:1048E0002021094BD3F824315BB1084B4FF08052A3
:1048F0001A60BFF34F8FBFF36F8F0124AFE700241F
:10490000ADE70024ABE700BFC402002004ED00E0E7
:1049100010B5B0B104460F4BD3F8183143B14FF086
:10492000500383F31188BFF36F8FBFF34F8FFEE700
:10493000FFF7D6FE00212046FFF7F0FDFFF770FFDE
:1049400038B9054B4FF080521A60BFF34F8FBFF359
:104950006F8F10BDC402002004ED00E0224BD3F89D
:10496000183123B1204B0122C3F8242170471E4A7D
:104970000023C2F82431D2F80C31B3FA83F3DBB24E
:10498000C3F11F0303EB830081000A44126B42B999
:104990004FF0500383F31188BFF36F8FBFF34F8F36
:1049A000FEE710B4104A9900CC18A0001044446BE4
:1049B00064684463303219448800083002449442E9
:1049C0000BD0094903EB83039A000A44536BDB685D
:1049D000C1F800315DF8044B704761680248142249
:1049E00002FB03025163ECE7C402002040B94FF020
:1049F000500383F31188BFF36F8FBFF34F8FFEE730
:104A000010B50C46054BD3F800111831FEF70BFF1B
:104A100001212046FFF782FD10BD00BFC402002027
:104A200038B5C368DC6844B94FF0500383F311888C
:104A3000BFF36F8FBFF34F8FFEE704F118052846D1
:104A4000FEF70BFF154BD3F8183103BB251D284685
:104A5000FEF703FFE36A01219940104AD2F80C01E6
:104A60000143C2F80C11303203EB8303980029464E
:104A70001044FEF7CCFEE26A084BD3F80031DB6A43
:104A80009A4209D90120054BC3F8240138BD2946B3
:104A90000348FEF7BCFEEEE70020F7E7C402002063
:104AA000D8020020034BD3F81C210260D3F8143144
:104AB00043607047C4020020F8B550B1054689B97B
:104AC0004FF0500383F31188BFF36F8FBFF34F8F05
:104AD000FEE74FF0500383F31188BFF36F8FBFF3EE
:104AE0004F8FFEE70C4600F0D5F9124BD3F81411A6
:104AF00068680A1A2368B3F1FF3F17D02F680D4E7C
:104B0000D6F81C61B74201D0884211D9934203D82C
:104B100000232360012405E09B1A23602846FFF749
:104B2000C1FF002400F0D8F92046F8BD0024F9E7C1
:104B30000124F7E7C4020020024B0122C3F824211C
:104B4000704700BFC4020020064BD3F804313BB1CC
:104B5000044BD3F818310BB1002070470220704786
:104B600001207047C4020020002859D038B50446FF
:104B7000C26A2C49D1F80011C96A8A4245D28169BA
:104B8000002906DB2749D1F80011C96AC1F10701E4
:104B90008161606902EB82029100234A0A449042DB
:104BA00006D0204AD2F80021D26AE262012038BD44
:104BB000251D2846FEF751FE80B9E26A02EB82030A
:104BC0009900184B0B441B6B43B9012393401549C3
:104BD000D1F80C2122EA0302C1F80C211148D0F8C7
:104BE0000031DB6AE362012404FA03F2D0F80C110D
:104BF0000A43C0F80C21303003EB83039A002946A6
:104C00001044FEF704FE2046D1E7426C054BD3F872
:104C10000031DB6A9A4201D20120C8E70020C6E7D2
:104C200000207047C4020020F402002000284DD06C
:104C300038B50446284AD2F80021824208D04FF005
:104C4000500383F31188BFF36F8FBFF34F8FFEE7DD
:104C5000826C42B94FF0500383F31188BFF36F8F1A
:104C6000BFF34F8FFEE7013A8264C06A616C8842ED
:104C70002ED07ABB251D2846FEF7EFFD78B9E26AF3
:104C80001549142303FB02131B6B43B9012303FAD9
:104C900002F2D1F80C3123EA0203C1F80C31626C44
:104CA000E262C2F10703A361012404FA02F10A4B94
:104CB000D3F80C010143C3F80C11303329461420FA
:104CC00000FB0230FEF7A3FD204638BD00207047F0
:104CD0000020FAE70020F8E7C4020020002859D09D
:104CE00038B50346806C40B94FF0500383F3118808
:104CF000BFF36F8FBFF34F8FFEE75A6C8A4200D22B
:104D00000A46D96A914201D0012800D038BD224814
:104D1000D0F80001984208D14FF0500383F3118876
:104D2000BFF36F8FBFF34F8FFEE7DA6298690028F9
:104D300002DBC2F107029A615A691848142404FB85
:104D400001018A42E2D11C461D1D2846FEF785FD61
:104D500078B9E26A1049142303FB02131B6B43B9B1
:104D6000012303FA02F2D1F80C3123EA0203C1F85D
:104D70000C31E06A01228240074BD3F80C110A4340
:104D8000C3F80C2130332946142202FB0030FEF711
:104D90003EFDBBE7704700BFC4020020F4020020C4
:104DA000064BD3F800312BB1044BD3F80021936CA0
:104DB00001339364014BD3F800017047C402002013
:104DC00082B0002301930D4B1B68B3F1FF3F08D065
:104DD0004FF0500383F31188BFF36F8FBFF34F8FF2
:104DE000FEE74FF0500383F31188BFF36F8FBFF3DB
:104DF0004F8F019B002BFCD002B0704708000020B1
:104E000008480068006880F308884FF0000080F3CD
:104E1000148862B661B6BFF34F8FBFF36F8F00DFA8
:104E200000BF000008ED00E0DFF80C00016841F46D
:104E3000700101607047000088ED00E04FF0807362
:104E400040F8043C21F0010140F8081C054B40F8F3
:104E50000C3C40F8202C6FF0020340F8243C44380E
:104E6000704700BFC14D00080000000000000000B6
:104E7000074B19680868B0E8F04F80F30988BFF362
:104E80006F8F4FF0000080F311887047AFF3008000
:104E9000C40300204FF0500383F31188BFF36F8FDA
:104EA000BFF34F8F0A4A136801331360012B00D000
:104EB0007047084B1B6813F0FF0FF9D04FF05003F9
:104EC00083F31188BFF36F8FBFF34F8FFEE700BFEF
:104ED0000800002004ED00E0094B1B6843B94FF0C7
:104EE000500383F31188BFF36F8FBFF34F8FFEE73B
:104EF000013B034A13600BB983F31188704700BF6D
:104F00000800002000000000000000000000000079
:104F1000EFF30980BFF36F8F154B1A681EF0100F67
:104F200008BF20ED108A20E9F04F10602DE909003C
:104F30004FF0500080F31188BFF34F8FBFF36F8F96
:104F4000FFF70CFD4FF0000080F3118809BC1968D1
:104F50000868B0E8F04F1EF0100F08BFB0EC108AE0
:104F600080F30988BFF36F8F704700BFAFF30080F5
:104F7000C403002008B54FF0500383F31188BFF33A
:104F80006F8FBFF34F8FFFF7C5FB18B1034B4FF087
:104F900080521A60002383F3118808BD04ED00E0FD
:104FA000084A0023136008490B60084B1B68084936
:104FB000A1FB03139B09013B06490B600723136008
:104FC000704700BF10E000E018E000E0D0000020D3
:104FD000D34D621014E000E0394B1A68394B9A4205
:104FE0000DD0374B1A68384B9A4211D14FF050030D
:104FF00083F31188BFF36F8FBFF34F8FFEE74FF03E
:10500000500383F31188BFF36F8FBFF34F8FFEE719
:1050100010B582B02D4B1A78D2B20192FF221A70CD
:105020001B78DBB28DF803309DF8033003F050039A
:10503000274A13700723536009E0254A5368013B50
:1050400053609DF803305B00DBB28DF803309DF8B0
:10505000033013F0800FF0D11D4B5B68032B08D099
:105060004FF0500383F31188BFF36F8FBFF34F8F5F
:10507000FEE71B0203F4E063154A5360019BDBB2B9
:10508000124A1370134B1A6842F470021A601A68BD
:1050900042F070421A60FFF783FF00240E4B1C6041
:1050A000FFF7C2FE0D4A136843F040431360FFF759
:1050B000A7FEFFF753FCFFF783FE204602B010BDAA
:1050C00000ED00E071C20F4170C20F4100E400E04A
:1050D000EC03002020ED00E00800002034EF00E0A9
:1050E000EFF305830F2B0FD9104A9B5CDBB2104AFC
:1050F00012789A4208D94FF0500383F31188BFF316
:105100006F8FBFF34F8FFEE70A4B1B6803F4E0631A
:10511000074A5268934208D94FF0500383F311882D
:10512000BFF36F8FBFF34F8FFEE77047F0E300E0F0
:10513000EC0300200CED00E0114A12F0070F1BD029
:10514000D11D21F00701C1F54D43F03313440A4648
:105150000C490A60002048601344083B23F0070311
:105160008B6058601860981A50601360C8600861BE
:105170004FF000434B6170474CF6F053E8E700BF37
:105180000C040020F403002010B4134B1A68824270
:105190001BD359685C18844203D1406801445960AC
:1051A000184641684418A24213D10B4CA468A2428D
:1051B0000DD05268114441601A681268026098422A
:1051C00000D018605DF8044B70471346DEE70460BA
:1051D000F5E70260F3E700BFF403002070B5044672
:1051E000FFF77EFA394B9B68BBB1384B5B691C42B9
:1051F00062D1ACB1083414F0070F11D024F00704C9
:10520000083404F007035BB14FF0500383F31188B7
:10521000BFF36F8FBFF34F8FFEE7FFF78DFFE4E71C
:10522000002C4BD0294B1B69A34249D3274B1D6847
:1052300001E02B4615466A68A24202D22A68002A7B
:10524000F7D1224A9268AA423CD01E6808362A68E2
:105250001A606B681B1B102B10D9281910F0070F50
:1052600008D04FF0500383F31188BFF36F8FBFF363
:105270004F8FFEE743606C60FFF786FF6968134A53
:1052800013695B1A1361D268934201D20F4AD3604B
:105290000E4B5B690B436B6000232B60FFF7C0FA7A
:1052A00016F0070F10D04FF0500383F31188BFF3AF
:1052B0006F8FBFF34F8FFEE70026EFE70026EDE785
:1052C0000026EBE70026E9E7304670BDF403002036
:1052D00080B338B50446A0F1080550F8042C1649EF
:1052E00049690A4208D14FF0500383F31188BFF394
:1052F0006F8FBFF34F8FFEE750F8080C40B14FF0AF
:10530000500383F31188BFF36F8FBFF34F8FFEE716
:1053100022EA010244F8042CFFF7E2F954F8041CD5
:10532000054A13690B4413612846FFF72DFFFFF769
:1053300077FA38BD704700BFF403002010B50C4663
:105340000A680C3201F074FC034608B994F9043081
:10535000184610BD00B587B060B101908DF80C10F3
:1053600029238DF80D3001A90748FFF7E7FF07B0A3
:105370005DF804FB054B4FF44A720549054810F0EF
:1053800045FC6FF00F00F2E711690008A8860108DC
:10539000DC860108F886010870B586B00023059305
:1053A000B1B104460D4600230B60D8B1037803F079
:1053B000F003102B20D004F1100630460CF0D8FE7C
:1053C00040B394F9080010F10C0F2DDA06B070BD4F
:1053D0003A4B40F2E7123A493A4810F017FC6FF0A6
:1053E0000F00F3E7354B40F2E9123749354810F02A
:1053F0000DFC6FF00F00E9E710300CF0B9FE00284B
:10540000D9D104F114000CF0B3FE002853D06FF092
:105410000A00DBE7294B40F2F5122C49294810F02D
:10542000F5FB6FF00A00D1E7002205A930460CF029
:105430005FFE237803F0F003102B0ED0059B002BAA
:1054400031D0059B1B681A89A36A13B1012120463C
:105450009847059B2B600020B8E70094059B4BB153
:105460001B89029369461A48FFF768FF059B23B121
:105470001A89E9E701230293F4E7A36A1BB100222A
:10548000012120469847636833B994F90800002841
:105490009CD16FF00D0099E701212046FFF75AFFDC
:1054A0006FF00E0092E7054B40F23E220949054895
:1054B00010F0ACFBC5E76FF00E0087E7A886010887
:1054C00020870108F8860108408701085C870108E9
:1054D000B76700087C87010870B586B00D46114695
:1054E00000F07AFE044640B18DF80C5006A941F850
:1054F000140D2048FFF722FF10B9204606B070BDFA
:1055000063682BB11C4B89221C491D4810F07EFB9F
:1055100004F1100528460CF02BFEB0B104F1140084
:105520000CF026FEC0B904F10C0630460CF08CFEDF
:10553000C8B130460CF07AFE28460CF0A1FD214699
:10554000072006F0DFF90024D7E70B4B8A220D492C
:105550000B4810F05BFBE1E7074B8C220A49084837
:1055600010F054FBDFE7044B8F220849044810F089
:105570004DFBDEE7A5610008A886010888870108C1
:10558000F8860108AC870108C4870108E88701088C
:1055900030B587B070B10446019029238DF80D30E5
:1055A00001A90648FFF7CAFE054620B9204600F0CB
:1055B00059FE00E00025284607B030BD8D64000884
:1055C00000B587B060B1034699B101930391ADF87E
:1055D000102001A90848FFF7B1FE07B05DF804FBF1
:1055E000064BFF220649074810F010FB6FF00F0032
:1055F000F3E70549E9E700BFFD650008A886010853
:1056000064880108F88601080885010800B587B09C
:1056100040B106A941F8140D0748FFF78FFE07B007
:105620005DF804FB054B4FF4B4720549054810F0D2
:10563000EDFA6FF00F00F2E761660008A886010836
:10564000C4880108F886010870B582B059B10446D3
:105650000D4600230B6080B190F9080010F10C0F8B
:1056600015DA02B070BD214B40F28D12204921485D
:1056700010F0CCFA6FF00F00F3E71C4B40F28F12E2
:105680001D491C4810F0C2FA6FF00F00E9E704F161
:10569000140630460CF06CFD08B3002201A9304618
:1056A0000CF026FD019EA36A1BB1002201212046B9
:1056B0009847019A114B9A4214D016B12E600020DF
:1056C000CFE70CF027FE94F9083013F10C0F01DB43
:1056D000F12323720CF02AFE6FF00E00C1E76FF089
:1056E0000E00BEE76FF00C00BBE700BFA886010804
:1056F000E4880108F8860108048901084CD70020D5
:1057000070B582B079B104460D4600230B60A0B19C
:10571000037803F0F003102B19D0FFF73DFE044689
:10572000204602B070BD1E4B4FF41D721D491E482D
:1057300010F06CFA6FF00F04F2E7194B40F276228A
:105740001A49194810F062FA6FF00F04E8E70023D5
:105750000193062006F0BCF80646E8B101A92046F0
:10576000FFF71AFE044650B9019B6BB1019B3360F1
:10577000019B73600023B381B3602E60D0E7314694
:10578000062006F0BFF8CBE7054B40F28A22084915
:10579000054810F03BFAE9E74FF0FF34C0E700BFDF
:1057A000A886010820870108F886010840870108BB
:1057B000488B010800B587B040B10190039101A961
:1057C0000748FFF7BBFD07B05DF804FB054B40F24F
:1057D000C3220549054810F019FA6FF00F00F2E7EF
:1057E00051670008A886010824890108F886010885
:1057F00059B110B50C4632B112682146A260A3819E
:10580000FFF7D8FF10BD0022F7E76FF005007047E3
:1058100070B586B088B115460446027802F0F002F1
:10582000102A14D1002D39D0027F12F0020F18D1A6
:1058300013F0040F2CD0012214E01C4B40F2E6229E
:105840001B491C4810F0E2F96FF00F0327E0174BDB
:1058500040F2E7221849174810F0D8F96FF0050315
:105860001DE0012202F0FF060AB10A9AD2B10194AA
:1058700003918DF81430049501A91048FFF75EFDDF
:10588000034660B90A9A52B126B90A9A156006E031
:105890000022E7E7049A0A990A6000E0002318460C
:1058A00006B070BD6FF00503F9E700BFA8860108D8
:1058B00040890108F88601085C8901081168000820
:1058C00008B50321FFF746FD08BD00002DE9F041B2
:1058D0000446154698460E4679B3002C34D0002C69
:1058E00039D06368B34205D0244BBA2224492548F5
:1058F00010F08CF904F1100738460CF039FC70B345
:10590000062005F0E5FF064670B305604560B8F176
:10591000000F2DD0D8F80030B360BDF81830B38137
:105920002D89314638460CF0CFFB18BBA36ACBB1AA
:105930002A4600212046984714E0104BB122124914
:10594000104810F063F9C8E70C4BB2220F490D481C
:1059500010F05CF9C3E7284606F0CEF902E02846CD
:1059600006F0CAF9BDE8F081284606F0C5F9F9E766
:105970000023D1E7304601F045F8F3E780890108BC
:10598000F8890108F8860108B4890108D889010856
:1059900010B501464468204606F071FF08492046CC
:1059A00006F070FF0749204606F086FF02220649EE
:1059B000204606F0BBFF0549204606F095FF10BDC6
:1059C000D560000861600008E15F0008595A0008CE
:1059D00038B5044603685B6833B11B4B4FF40B7258
:1059E0001A491B4810F012F925682B7803F0F003D0
:1059F000102B18D0202B21D100200AF0EDFC68607C
:105A000023685A6842B11B78222B09D023681A46B2
:105A1000104958680AF0B2FC23685B688BB138BD46
:105A200001231374F2E7002007F024FD686020686A
:105A30004368002BF0D0FFF7ABFFEDE7FA232371AB
:105A4000EDE7FF232371EAE780890108188A01083E
:105A5000F8860108CD580008F8B50E460446A0B1F6
:105A60000023636065786370042D16D1002C47D045
:105A70000CF050FC94F9083013F10C0F01DB0023FB
:105A800023720CF053FC00260CE03D4B4FF4C27225
:105A90003C493D4810F0BAF8E2E70CF03BFC2672B6
:105AA0000CF044FCA36A1BB1002204212046984755
:105AB000A36A1BB10022114620469847A36A1BB176
:105AC000002202212046984704F1100738460CF0C6
:105AD0004FFBB8B904F1140738460CF049FBB0B9D4
